{
    "contractName": "UsersContract",
    "abi": [
        {
            "anonymous": false,
            "inputs": [
                {
                    "indexed": false,
                    "internalType": "address",
                    "name": "",
                    "type": "address"
                },
                {
                    "indexed": false,
                    "internalType": "string",
                    "name": "",
                    "type": "string"
                }
            ],
            "name": "onUserJoined",
            "type": "event"
        },
        {
            "inputs": [
                {
                    "internalType": "address",
                    "name": "addr",
                    "type": "address"
                }
            ],
            "name": "getUser",
            "outputs": [
                {
                    "internalType": "string",
                    "name": "",
                    "type": "string"
                },
                {
                    "internalType": "string",
                    "name": "",
                    "type": "string"
                }
            ],
            "stateMutability": "view",
            "type": "function"
        },
        {
            "inputs": [
                {
                    "internalType": "string",
                    "name": "name",
                    "type": "string"
                },
                {
                    "internalType": "string",
                    "name": "surName",
                    "type": "string"
                }
            ],
            "name": "join",
            "outputs": [],
            "stateMutability": "nonpayable",
            "type": "function"
        },
        {
            "inputs": [],
            "name": "totalUsers",
            "outputs": [
                {
                    "internalType": "uint256",
                    "name": "",
                    "type": "uint256"
                }
            ],
            "stateMutability": "view",
            "type": "function"
        }
    ],
    "bytecode": "608060405234801561001057600080fd5b50610646806100206000396000f3fe608060405234801561001057600080fd5b50600436106100415760003560e01c806329803b21146100465780636f77926b1461005b578063bff1f9e114610085575b600080fd5b61005961005436600461046c565b610096565b005b61006e61006936600461043e565b6101a3565b60405161007c929190610561565b60405180910390f35b60025460405190815260200161007c565b3360009081526001602052604090205460ff16156100b357600080fd5b33600090815260208181526040909120835190916100d591839186019061031e565b5081516100eb906001830190602085019061031e565b50336000818152600160208181526040808420805460ff1916841790556002805493840181559093527f405787fa12a823e0f2b7631cc41b3ba8828b3321ca811111fa75cd3aa3bb5ace90910180546001600160a01b0319168417905590517fcb377c658a30311994ed849c5202a7876366b3353f8a9e009226ccd6411935b3929161017b9187918791016104f9565b60408051601f19818403018152908290526101969291610535565b60405180910390a1505050565b33600090815260016020526040902054606090819060ff166101c457600080fd5b6001600160a01b03831660009081526020819052604080822081518083019092528054829082906101f4906105bf565b80601f0160208091040260200160405190810160405280929190818152602001828054610220906105bf565b801561026d5780601f106102425761010080835404028352916020019161026d565b820191906000526020600020905b81548152906001019060200180831161025057829003601f168201915b50505050508152602001600182018054610286906105bf565b80601f01602080910402602001604051908101604052809291908181526020018280546102b2906105bf565b80156102ff5780601f106102d4576101008083540402835291602001916102ff565b820191906000526020600020905b8154815290600101906020018083116102e257829003601f168201915b5050505050815250509050806000015181602001519250925050915091565b82805461032a906105bf565b90600052602060002090601f01602090048101928261034c5760008555610392565b82601f1061036557805160ff1916838001178555610392565b82800160010185558215610392579182015b82811115610392578251825591602001919060010190610377565b5061039e9291506103a2565b5090565b5b8082111561039e57600081556001016103a3565b600082601f8301126103c7578081fd5b813567ffffffffffffffff808211156103e2576103e26105fa565b604051601f8301601f19908116603f0116810190828211818310171561040a5761040a6105fa565b81604052838152866020858801011115610422578485fd5b8360208701602083013792830160200193909352509392505050565b60006020828403121561044f578081fd5b81356001600160a01b0381168114610465578182fd5b9392505050565b6000806040838503121561047e578081fd5b823567ffffffffffffffff80821115610495578283fd5b6104a1868387016103b7565b935060208501359150808211156104b6578283fd5b506104c3858286016103b7565b9150509250929050565b600081518084526104e581602086016020860161058f565b601f01601f19169290920160200192915050565b6000835161050b81846020880161058f565b600160fd1b908301908152835161052981600184016020880161058f565b01600101949350505050565b6001600160a01b0383168152604060208201819052600090610559908301846104cd565b949350505050565b60408152600061057460408301856104cd565b828103602084015261058681856104cd565b95945050505050565b60005b838110156105aa578181015183820152602001610592565b838111156105b9576000848401525b50505050565b600181811c908216806105d357607f821691505b602082108114156105f457634e487b7160e01b600052602260045260246000fd5b50919050565b634e487b7160e01b600052604160045260246000fdfea26469706673582212209e0a961fb4b992f92429a3639b0285f2f54e1c0a5f56558c614c011a311caf5f64736f6c63430008040033",
    "sourcePath": "c:/source/ethereum-training/compile-and-deploy/Contracts/UsersContract.sol",
    "compiler": {
        "name": "solc",
        "version": "0.8.4+commit.c7e474f2"
    },
    "functionHashes": {
        "getUser(address)": "6f77926b",
        "join(string,string)": "29803b21",
        "totalUsers()": "bff1f9e1"
    },
    "gasEstimates": {
        "creation": {
            "codeDepositCost": "321200",
            "executionCost": "362",
            "totalCost": "321562"
        },
        "external": {
            "getUser(address)": "infinite",
            "join(string,string)": "infinite",
            "totalUsers()": "1002"
        },
        "internal": {
            "userJoined(address)": "infinite"
        }
    }
}