{
    "contractName": "UsersContract",
    "abi": [
        {
            "inputs": [
                {
                    "internalType": "address",
                    "name": "addr",
                    "type": "address"
                }
            ],
            "name": "getUser",
            "outputs": [
                {
                    "internalType": "string",
                    "name": "",
                    "type": "string"
                },
                {
                    "internalType": "string",
                    "name": "",
                    "type": "string"
                }
            ],
            "stateMutability": "view",
            "type": "function"
        },
        {
            "inputs": [
                {
                    "internalType": "string",
                    "name": "name",
                    "type": "string"
                },
                {
                    "internalType": "string",
                    "name": "surName",
                    "type": "string"
                }
            ],
            "name": "join",
            "outputs": [],
            "stateMutability": "nonpayable",
            "type": "function"
        },
        {
            "inputs": [],
            "name": "totalUsers",
            "outputs": [
                {
                    "internalType": "uint256",
                    "name": "",
                    "type": "uint256"
                }
            ],
            "stateMutability": "view",
            "type": "function"
        }
    ],
    "bytecode": "608060405234801561001057600080fd5b50610575806100206000396000f3fe608060405234801561001057600080fd5b50600436106100415760003560e01c806329803b21146100465780636f77926b1461005b578063bff1f9e114610085575b600080fd5b610059610054366004610414565b610096565b005b61006e6100693660046103e6565b61014b565b60405161007c9291906104c0565b60405180910390f35b60025460405190815260200161007c565b3360009081526001602052604090205460ff16156100b357600080fd5b33600090815260208181526040909120835190916100d59183918601906102c6565b5081516100eb90600183019060208501906102c6565b50503360008181526001602081905260408220805460ff1916821790556002805491820181559091527f405787fa12a823e0f2b7631cc41b3ba8828b3321ca811111fa75cd3aa3bb5ace0180546001600160a01b03191690911790555050565b33600090815260016020526040902054606090819060ff1661016c57600080fd5b6001600160a01b038316600090815260208190526040808220815180830190925280548290829061019c906104ee565b80601f01602080910402602001604051908101604052809291908181526020018280546101c8906104ee565b80156102155780601f106101ea57610100808354040283529160200191610215565b820191906000526020600020905b8154815290600101906020018083116101f857829003601f168201915b5050505050815260200160018201805461022e906104ee565b80601f016020809104026020016040519081016040528092919081815260200182805461025a906104ee565b80156102a75780601f1061027c576101008083540402835291602001916102a7565b820191906000526020600020905b81548152906001019060200180831161028a57829003601f168201915b5050505050815250509050806000015181602001519250925050915091565b8280546102d2906104ee565b90600052602060002090601f0160209004810192826102f4576000855561033a565b82601f1061030d57805160ff191683800117855561033a565b8280016001018555821561033a579182015b8281111561033a57825182559160200191906001019061031f565b5061034692915061034a565b5090565b5b80821115610346576000815560010161034b565b600082601f83011261036f578081fd5b813567ffffffffffffffff8082111561038a5761038a610529565b604051601f8301601f19908116603f011681019082821181831017156103b2576103b2610529565b816040528381528660208588010111156103ca578485fd5b8360208701602083013792830160200193909352509392505050565b6000602082840312156103f7578081fd5b81356001600160a01b038116811461040d578182fd5b9392505050565b60008060408385031215610426578081fd5b823567ffffffffffffffff8082111561043d578283fd5b6104498683870161035f565b9350602085013591508082111561045e578283fd5b5061046b8582860161035f565b9150509250929050565b60008151808452815b8181101561049a5760208185018101518683018201520161047e565b818111156104ab5782602083870101525b50601f01601f19169290920160200192915050565b6040815260006104d36040830185610475565b82810360208401526104e58185610475565b95945050505050565b600181811c9082168061050257607f821691505b6020821081141561052357634e487b7160e01b600052602260045260246000fd5b50919050565b634e487b7160e01b600052604160045260246000fdfea2646970667358221220d9895446f13b6d24391cbe502d67acb650d8875be696d95ceb83d0839501d90364736f6c63430008040033",
    "sourcePath": "c:/source/ethereum-training/compile-and-deploy/Contracts/UsersContract.sol",
    "compiler": {
        "name": "solc",
        "version": "0.8.4+commit.c7e474f2"
    },
    "functionHashes": {
        "getUser(address)": "6f77926b",
        "join(string,string)": "29803b21",
        "totalUsers()": "bff1f9e1"
    },
    "gasEstimates": {
        "creation": {
            "codeDepositCost": "279400",
            "executionCost": "318",
            "totalCost": "279718"
        },
        "external": {
            "getUser(address)": "infinite",
            "join(string,string)": "infinite",
            "totalUsers()": "1002"
        },
        "internal": {
            "userJoined(address)": "infinite"
        }
    }
}